:020000040800F2
:100000000028002029020008C9010008D5010008C5
:10001000DB010008E1010008E70100080000000022
:10002000000000000000000000000000ED010008DA
:10003000F901000800000000050200081102000894
:1000400071020008710200087102000871020008C4
:1000500071020008710200087102000871020008B4
:1000600071020008710200087102000871020008A4
:100070007102000871020008710200087102000894
:100080007102000871020008710200087102000884
:100090007102000871020008710200087102000874
:1000A0007102000871020008710200087102000864
:1000B00071020008710200080000000071020008CF
:1000C000710200080000000000000000710200083A
:1000D000000000007102000871020008000000002A
:1000E000710200087102000871020008000000009F
:1000F0000000000000000000000000000000000000
:0C01000000000000000000005FF808F1A3
:10010C0010B5054C237833B9044B13B10448AFF345
:10011C0000800123237010BD0800002000000000A7
:10012C00E002000808B5034B1BB103490348AFF3C9
:10013C00008008BD000000000C000020E002000858
:10014C0080B483B000AF1A4B1B68194A43F0040308
:10015C001360184B1B68174A23F470031360154B7C
:10016C001B68144A43F400131360134B1A6813886A
:10017C0043F40053138000237B6002E07B6801335F
:10018C007B607B6841F287329342F7DD0A4B1A6839
:10019C0013886FF34D33138000233B6002E03B6800
:1001AC0001333B603B6841F287329342F7DDDCE779
:1001BC0018100240040801400000002080B400AF79
:1001CC0000BFBD4680BC704780B400AFFEE780B472
:1001DC0000AFFEE780B400AFFEE780B400AFFEE7EF
:1001EC0080B400AF00BFBD4680BC704780B400AF88
:1001FC0000BFBD4680BC704780B400AF00BFBD4699
:10020C0080BC704780B500AF00F02EF800BF80BDF9
:10021C0080B400AF00BFBD4680BC70470C480D4990
:10022C000D4A002302E0D458C4500433C4188C4245
:10023C00F9D30A4A0A4C002301E013600432A242AB
:10024C00FBD3FFF7E5FF00F021F8FFF779FF7047CC
:10025C000000002008000020000300080800002017
:10026C0028000020FEE7000080B400AF054B1B788F
:10027C001A46054B1B681344034A136000BFBD4666
:10028C0080BC7047040000202400002070B50025BD
:10029C000C4E0D4CA41BA410A54209D100F01AF869
:1002AC0000250A4E0A4CA41BA410A54205D170BD12
:1002BC0056F8253098470135EEE756F82530984723
:1002CC000135F2E7F8020008F8020008F80200080D
:1002DC00FC020008F8B500BFF8BC08BC9E4670478D
:0C02EC00F8B500BFF8BC08BC9E46704787
:0402F80031010008C8
:0402FC000D010008E8
:080300000C080140010000009F
:0400000508000229C4
:00000001FF
